{
  "_format": "hh-sol-artifact-1",
  "contractName": "KipuBankV3",
  "sourceName": "contracts/KipuBankV3.sol",
  "abi": [
    {
      "inputs": [
        {
          "internalType": "address",
          "name": "_swapRouter",
          "type": "address"
        },
        {
          "internalType": "address",
          "name": "_permit2",
          "type": "address"
        }
      ],
      "stateMutability": "nonpayable",
      "type": "constructor"
    },
    {
      "inputs": [],
      "name": "InsufficientBalance",
      "type": "error"
    },
    {
      "inputs": [],
      "name": "ZeroAddress",
      "type": "error"
    },
    {
      "inputs": [],
      "name": "ZeroAmount",
      "type": "error"
    },
    {
      "anonymous": false,
      "inputs": [
        {
          "indexed": true,
          "internalType": "address",
          "name": "user",
          "type": "address"
        },
        {
          "indexed": false,
          "internalType": "address",
          "name": "token",
          "type": "address"
        },
        {
          "indexed": false,
          "internalType": "uint256",
          "name": "amount",
          "type": "uint256"
        }
      ],
      "name": "Deposit",
      "type": "event"
    },
    {
      "anonymous": false,
      "inputs": [
        {
          "indexed": true,
          "internalType": "address",
          "name": "user",
          "type": "address"
        },
        {
          "indexed": false,
          "internalType": "address",
          "name": "tokenIn",
          "type": "address"
        },
        {
          "indexed": false,
          "internalType": "address",
          "name": "tokenOut",
          "type": "address"
        },
        {
          "indexed": false,
          "internalType": "uint256",
          "name": "amountIn",
          "type": "uint256"
        },
        {
          "indexed": false,
          "internalType": "uint256",
          "name": "amountOut",
          "type": "uint256"
        }
      ],
      "name": "SwapExecuted",
      "type": "event"
    },
    {
      "anonymous": false,
      "inputs": [
        {
          "indexed": true,
          "internalType": "address",
          "name": "user",
          "type": "address"
        },
        {
          "indexed": false,
          "internalType": "address",
          "name": "token",
          "type": "address"
        },
        {
          "indexed": false,
          "internalType": "uint256",
          "name": "amount",
          "type": "uint256"
        }
      ],
      "name": "Withdraw",
      "type": "event"
    },
    {
      "inputs": [
        {
          "internalType": "address",
          "name": "user",
          "type": "address"
        }
      ],
      "name": "balanceOfETH",
      "outputs": [
        {
          "internalType": "uint256",
          "name": "",
          "type": "uint256"
        }
      ],
      "stateMutability": "view",
      "type": "function"
    },
    {
      "inputs": [
        {
          "internalType": "address",
          "name": "user",
          "type": "address"
        },
        {
          "internalType": "address",
          "name": "token",
          "type": "address"
        }
      ],
      "name": "balanceOfToken",
      "outputs": [
        {
          "internalType": "uint256",
          "name": "",
          "type": "uint256"
        }
      ],
      "stateMutability": "view",
      "type": "function"
    },
    {
      "inputs": [],
      "name": "deposit",
      "outputs": [],
      "stateMutability": "payable",
      "type": "function"
    },
    {
      "inputs": [
        {
          "internalType": "address",
          "name": "token",
          "type": "address"
        },
        {
          "internalType": "uint256",
          "name": "amount",
          "type": "uint256"
        }
      ],
      "name": "depositArbitraryToken",
      "outputs": [],
      "stateMutability": "nonpayable",
      "type": "function"
    },
    {
      "inputs": [],
      "name": "permit2",
      "outputs": [
        {
          "internalType": "address",
          "name": "",
          "type": "address"
        }
      ],
      "stateMutability": "view",
      "type": "function"
    },
    {
      "inputs": [
        {
          "internalType": "address",
          "name": "tokenIn",
          "type": "address"
        },
        {
          "internalType": "address",
          "name": "tokenOut",
          "type": "address"
        },
        {
          "internalType": "uint24",
          "name": "fee",
          "type": "uint24"
        },
        {
          "internalType": "uint256",
          "name": "amountIn",
          "type": "uint256"
        },
        {
          "internalType": "uint256",
          "name": "amountOutMinimum",
          "type": "uint256"
        }
      ],
      "name": "swapExactInputSingle",
      "outputs": [
        {
          "internalType": "uint256",
          "name": "amountOut",
          "type": "uint256"
        }
      ],
      "stateMutability": "nonpayable",
      "type": "function"
    },
    {
      "inputs": [],
      "name": "swapRouter",
      "outputs": [
        {
          "internalType": "contract ISwapRouter",
          "name": "",
          "type": "address"
        }
      ],
      "stateMutability": "view",
      "type": "function"
    },
    {
      "inputs": [
        {
          "internalType": "uint256",
          "name": "amount",
          "type": "uint256"
        }
      ],
      "name": "withdrawETH",
      "outputs": [],
      "stateMutability": "nonpayable",
      "type": "function"
    },
    {
      "inputs": [
        {
          "internalType": "address",
          "name": "token",
          "type": "address"
        },
        {
          "internalType": "uint256",
          "name": "amount",
          "type": "uint256"
        }
      ],
      "name": "withdrawToken",
      "outputs": [],
      "stateMutability": "nonpayable",
      "type": "function"
    },
    {
      "stateMutability": "payable",
      "type": "receive"
    }
  ],
  "bytecode": "0x60a06040523480156200001157600080fd5b506040516200204b3803806200204b8339818101604052810190620000379190620001be565b600073ffffffffffffffffffffffffffffffffffffffff168273ffffffffffffffffffffffffffffffffffffffff1614806200009f5750600073ffffffffffffffffffffffffffffffffffffffff168173ffffffffffffffffffffffffffffffffffffffff16145b15620000d7576040517fd92e233d00000000000000000000000000000000000000000000000000000000815260040160405180910390fd5b8173ffffffffffffffffffffffffffffffffffffffff1660808173ffffffffffffffffffffffffffffffffffffffff168152505080600360006101000a81548173ffffffffffffffffffffffffffffffffffffffff021916908373ffffffffffffffffffffffffffffffffffffffff160217905550505062000205565b600080fd5b600073ffffffffffffffffffffffffffffffffffffffff82169050919050565b6000620001868262000159565b9050919050565b620001988162000179565b8114620001a457600080fd5b50565b600081519050620001b8816200018d565b92915050565b60008060408385031215620001d857620001d762000154565b5b6000620001e885828601620001a7565b9250506020620001fb85828601620001a7565b9150509250929050565b608051611e1c6200022f6000396000818161086a0152818161093a0152610e110152611e1c6000f3fe60806040526004361061008a5760003560e01c80639e281a98116100595780639e281a9814610242578063c31c9c071461026b578063d0e30db014610296578063f14210a6146102a0578063f59e38b7146102c95761016f565b806312261ee7146101745780633b404e651461019f578063561cd462146101c857806365650ea1146102055761016f565b3661016f57600034031561016d5760008060003373ffffffffffffffffffffffffffffffffffffffff1673ffffffffffffffffffffffffffffffffffffffff1681526020019081526020016000209050348160000160008282546100ee91906115c7565b92505081905550428160010160006101000a81548164ffffffffff021916908364ffffffffff1602179055503373ffffffffffffffffffffffffffffffffffffffff167f5548c837ab068cf56a2c2479df0882a4922fd203edb7517321831d95078c5f6260003460405161016392919061164b565b60405180910390a2505b005b600080fd5b34801561018057600080fd5b50610189610306565b6040516101969190611674565b60405180910390f35b3480156101ab57600080fd5b506101c660048036038101906101c191906116ec565b61032c565b005b3480156101d457600080fd5b506101ef60048036038101906101ea919061172c565b61055c565b6040516101fc9190611759565b60405180910390f35b34801561021157600080fd5b5061022c600480360381019061022791906117af565b6105a7565b6040516102399190611759565b60405180910390f35b34801561024e57600080fd5b50610269600480360381019061026491906116ec565b610b65565b005b34801561027757600080fd5b50610280610e0f565b60405161028d9190611889565b60405180910390f35b61029e610e33565b005b3480156102ac57600080fd5b506102c760048036038101906102c291906118a4565b610f43565b005b3480156102d557600080fd5b506102f060048036038101906102eb91906118d1565b611105565b6040516102fd9190611759565b60405180910390f35b600360009054906101000a900473ffffffffffffffffffffffffffffffffffffffff1681565b600073ffffffffffffffffffffffffffffffffffffffff168273ffffffffffffffffffffffffffffffffffffffff1603610392576040517fd92e233d00000000000000000000000000000000000000000000000000000000815260040160405180910390fd5b600081036103cc576040517f1f2a200500000000000000000000000000000000000000000000000000000000815260040160405180910390fd5b6103d88233308461118c565b80600160003373ffffffffffffffffffffffffffffffffffffffff1673ffffffffffffffffffffffffffffffffffffffff16815260200190815260200160002060008473ffffffffffffffffffffffffffffffffffffffff1673ffffffffffffffffffffffffffffffffffffffff168152602001908152602001600020600082825461046491906115c7565b9250508190555042600260003373ffffffffffffffffffffffffffffffffffffffff1673ffffffffffffffffffffffffffffffffffffffff16815260200190815260200160002060008473ffffffffffffffffffffffffffffffffffffffff1673ffffffffffffffffffffffffffffffffffffffff16815260200190815260200160002060006101000a81548164ffffffffff021916908364ffffffffff1602179055503373ffffffffffffffffffffffffffffffffffffffff167f5548c837ab068cf56a2c2479df0882a4922fd203edb7517321831d95078c5f62838360405161055092919061164b565b60405180910390a25050565b60008060008373ffffffffffffffffffffffffffffffffffffffff1673ffffffffffffffffffffffffffffffffffffffff168152602001908152602001600020600001549050919050565b60008073ffffffffffffffffffffffffffffffffffffffff168673ffffffffffffffffffffffffffffffffffffffff16148061060f5750600073ffffffffffffffffffffffffffffffffffffffff168573ffffffffffffffffffffffffffffffffffffffff16145b15610646576040517fd92e233d00000000000000000000000000000000000000000000000000000000815260040160405180910390fd5b60008303610680576040517f1f2a200500000000000000000000000000000000000000000000000000000000815260040160405180910390fd5b6000600160003373ffffffffffffffffffffffffffffffffffffffff1673ffffffffffffffffffffffffffffffffffffffff16815260200190815260200160002060008873ffffffffffffffffffffffffffffffffffffffff1673ffffffffffffffffffffffffffffffffffffffff1681526020019081526020016000205490508381101561073b576040517ff4d678b800000000000000000000000000000000000000000000000000000000815260040160405180910390fd5b83816107479190611911565b600160003373ffffffffffffffffffffffffffffffffffffffff1673ffffffffffffffffffffffffffffffffffffffff16815260200190815260200160002060008973ffffffffffffffffffffffffffffffffffffffff1673ffffffffffffffffffffffffffffffffffffffff1681526020019081526020016000208190555042600260003373ffffffffffffffffffffffffffffffffffffffff1673ffffffffffffffffffffffffffffffffffffffff16815260200190815260200160002060008973ffffffffffffffffffffffffffffffffffffffff1673ffffffffffffffffffffffffffffffffffffffff16815260200190815260200160002060006101000a81548164ffffffffff021916908364ffffffffff16021790555061088f877f0000000000000000000000000000000000000000000000000000000000000000866112e4565b60006040518061010001604052808973ffffffffffffffffffffffffffffffffffffffff1681526020018873ffffffffffffffffffffffffffffffffffffffff1681526020018762ffffff1681526020013073ffffffffffffffffffffffffffffffffffffffff16815260200161012c4261090a91906115c7565b8152602001868152602001858152602001600073ffffffffffffffffffffffffffffffffffffffff1681525090507f000000000000000000000000000000000000000000000000000000000000000073ffffffffffffffffffffffffffffffffffffffff1663414bf389826040518263ffffffff1660e01b81526004016109919190611a23565b6020604051808303816000875af11580156109b0573d6000803e3d6000fd5b505050506040513d601f19601f820116820180604052508101906109d49190611a54565b925082600160003373ffffffffffffffffffffffffffffffffffffffff1673ffffffffffffffffffffffffffffffffffffffff16815260200190815260200160002060008973ffffffffffffffffffffffffffffffffffffffff1673ffffffffffffffffffffffffffffffffffffffff1681526020019081526020016000206000828254610a6291906115c7565b9250508190555042600260003373ffffffffffffffffffffffffffffffffffffffff1673ffffffffffffffffffffffffffffffffffffffff16815260200190815260200160002060008973ffffffffffffffffffffffffffffffffffffffff1673ffffffffffffffffffffffffffffffffffffffff16815260200190815260200160002060006101000a81548164ffffffffff021916908364ffffffffff1602179055503373ffffffffffffffffffffffffffffffffffffffff167f764f0dc063c06f32d89a3f3af80c0db4be8a090901f589a478b447e0a51f09f189898887604051610b529493929190611a81565b60405180910390a2505095945050505050565b600073ffffffffffffffffffffffffffffffffffffffff168273ffffffffffffffffffffffffffffffffffffffff1603610bcb576040517fd92e233d00000000000000000000000000000000000000000000000000000000815260040160405180910390fd5b6000600160003373ffffffffffffffffffffffffffffffffffffffff1673ffffffffffffffffffffffffffffffffffffffff16815260200190815260200160002060008473ffffffffffffffffffffffffffffffffffffffff1673ffffffffffffffffffffffffffffffffffffffff16815260200190815260200160002054905081811015610c86576040517ff4d678b800000000000000000000000000000000000000000000000000000000815260040160405180910390fd5b8181610c929190611911565b600160003373ffffffffffffffffffffffffffffffffffffffff1673ffffffffffffffffffffffffffffffffffffffff16815260200190815260200160002060008573ffffffffffffffffffffffffffffffffffffffff1673ffffffffffffffffffffffffffffffffffffffff1681526020019081526020016000208190555042600260003373ffffffffffffffffffffffffffffffffffffffff1673ffffffffffffffffffffffffffffffffffffffff16815260200190815260200160002060008573ffffffffffffffffffffffffffffffffffffffff1673ffffffffffffffffffffffffffffffffffffffff16815260200190815260200160002060006101000a81548164ffffffffff021916908364ffffffffff160217905550610dba833384611439565b3373ffffffffffffffffffffffffffffffffffffffff167f9b1bfa7fa9ee420a16e124f794c35ac9f90472acc99140eb2f6447c714cad8eb8484604051610e0292919061164b565b60405180910390a2505050565b7f000000000000000000000000000000000000000000000000000000000000000081565b60003403610e6d576040517f1f2a200500000000000000000000000000000000000000000000000000000000815260040160405180910390fd5b60008060003373ffffffffffffffffffffffffffffffffffffffff1673ffffffffffffffffffffffffffffffffffffffff168152602001908152602001600020905034816000016000828254610ec391906115c7565b92505081905550428160010160006101000a81548164ffffffffff021916908364ffffffffff1602179055503373ffffffffffffffffffffffffffffffffffffffff167f5548c837ab068cf56a2c2479df0882a4922fd203edb7517321831d95078c5f62600034604051610f3892919061164b565b60405180910390a250565b60008060003373ffffffffffffffffffffffffffffffffffffffff1673ffffffffffffffffffffffffffffffffffffffff16815260200190815260200160002090508181600001541015610fc3576040517ff4d678b800000000000000000000000000000000000000000000000000000000815260040160405180910390fd5b81816000016000828254610fd79190611911565b92505081905550428160010160006101000a81548164ffffffffff021916908364ffffffffff16021790555060003373ffffffffffffffffffffffffffffffffffffffff168360405161102990611af7565b60006040518083038185875af1925050503d8060008114611066576040519150601f19603f3d011682016040523d82523d6000602084013e61106b565b606091505b50509050806110af576040517f08c379a00000000000000000000000000000000000000000000000000000000081526004016110a690611b69565b60405180910390fd5b3373ffffffffffffffffffffffffffffffffffffffff167f9b1bfa7fa9ee420a16e124f794c35ac9f90472acc99140eb2f6447c714cad8eb6000856040516110f892919061164b565b60405180910390a2505050565b6000600160008473ffffffffffffffffffffffffffffffffffffffff1673ffffffffffffffffffffffffffffffffffffffff16815260200190815260200160002060008373ffffffffffffffffffffffffffffffffffffffff1673ffffffffffffffffffffffffffffffffffffffff16815260200190815260200160002054905092915050565b6000808573ffffffffffffffffffffffffffffffffffffffff166323b872dd60e01b8686866040516024016111c393929190611b89565b604051602081830303815290604052907bffffffffffffffffffffffffffffffffffffffffffffffffffffffff19166020820180517bffffffffffffffffffffffffffffffffffffffffffffffffffffffff838183161783525050505060405161122d9190611c26565b6000604051808303816000865af19150503d806000811461126a576040519150601f19603f3d011682016040523d82523d6000602084013e61126f565b606091505b509150915081801561129d575060008151148061129c57508080602001905181019061129b9190611c75565b5b5b6112dc576040517f08c379a00000000000000000000000000000000000000000000000000000000081526004016112d390611cee565b60405180910390fd5b505050505050565b6000808473ffffffffffffffffffffffffffffffffffffffff1663095ea7b360e01b858560405160240161131992919061164b565b604051602081830303815290604052907bffffffffffffffffffffffffffffffffffffffffffffffffffffffff19166020820180517bffffffffffffffffffffffffffffffffffffffffffffffffffffffff83818316178352505050506040516113839190611c26565b6000604051808303816000865af19150503d80600081146113c0576040519150601f19603f3d011682016040523d82523d6000602084013e6113c5565b606091505b50915091508180156113f357506000815114806113f25750808060200190518101906113f19190611c75565b5b5b611432576040517f08c379a000000000000000000000000000000000000000000000000000000000815260040161142990611d5a565b60405180910390fd5b5050505050565b6000808473ffffffffffffffffffffffffffffffffffffffff1663a9059cbb60e01b858560405160240161146e92919061164b565b604051602081830303815290604052907bffffffffffffffffffffffffffffffffffffffffffffffffffffffff19166020820180517bffffffffffffffffffffffffffffffffffffffffffffffffffffffff83818316178352505050506040516114d89190611c26565b6000604051808303816000865af19150503d8060008114611515576040519150601f19603f3d011682016040523d82523d6000602084013e61151a565b606091505b509150915081801561154857506000815114806115475750808060200190518101906115469190611c75565b5b5b611587576040517f08c379a000000000000000000000000000000000000000000000000000000000815260040161157e90611dc6565b60405180910390fd5b5050505050565b6000819050919050565b7f4e487b7100000000000000000000000000000000000000000000000000000000600052601160045260246000fd5b60006115d28261158e565b91506115dd8361158e565b92508282019050808211156115f5576115f4611598565b5b92915050565b600073ffffffffffffffffffffffffffffffffffffffff82169050919050565b6000611626826115fb565b9050919050565b6116368161161b565b82525050565b6116458161158e565b82525050565b6000604082019050611660600083018561162d565b61166d602083018461163c565b9392505050565b6000602082019050611689600083018461162d565b92915050565b600080fd5b61169d8161161b565b81146116a857600080fd5b50565b6000813590506116ba81611694565b92915050565b6116c98161158e565b81146116d457600080fd5b50565b6000813590506116e6816116c0565b92915050565b600080604083850312156117035761170261168f565b5b6000611711858286016116ab565b9250506020611722858286016116d7565b9150509250929050565b6000602082840312156117425761174161168f565b5b6000611750848285016116ab565b91505092915050565b600060208201905061176e600083018461163c565b92915050565b600062ffffff82169050919050565b61178c81611774565b811461179757600080fd5b50565b6000813590506117a981611783565b92915050565b600080600080600060a086880312156117cb576117ca61168f565b5b60006117d9888289016116ab565b95505060206117ea888289016116ab565b94505060406117fb8882890161179a565b935050606061180c888289016116d7565b925050608061181d888289016116d7565b9150509295509295909350565b6000819050919050565b600061184f61184a611845846115fb565b61182a565b6115fb565b9050919050565b600061186182611834565b9050919050565b600061187382611856565b9050919050565b61188381611868565b82525050565b600060208201905061189e600083018461187a565b92915050565b6000602082840312156118ba576118b961168f565b5b60006118c8848285016116d7565b91505092915050565b600080604083850312156118e8576118e761168f565b5b60006118f6858286016116ab565b9250506020611907858286016116ab565b9150509250929050565b600061191c8261158e565b91506119278361158e565b925082820390508181111561193f5761193e611598565b5b92915050565b61194e8161161b565b82525050565b61195d81611774565b82525050565b61196c8161158e565b82525050565b61197b816115fb565b82525050565b610100820160008201516119986000850182611945565b5060208201516119ab6020850182611945565b5060408201516119be6040850182611954565b5060608201516119d16060850182611945565b5060808201516119e46080850182611963565b5060a08201516119f760a0850182611963565b5060c0820151611a0a60c0850182611963565b5060e0820151611a1d60e0850182611972565b50505050565b600061010082019050611a396000830184611981565b92915050565b600081519050611a4e816116c0565b92915050565b600060208284031215611a6a57611a6961168f565b5b6000611a7884828501611a3f565b91505092915050565b6000608082019050611a96600083018761162d565b611aa3602083018661162d565b611ab0604083018561163c565b611abd606083018461163c565b95945050505050565b600081905092915050565b50565b6000611ae1600083611ac6565b9150611aec82611ad1565b600082019050919050565b6000611b0282611ad4565b9150819050919050565b600082825260208201905092915050565b7f455448207472616e73666572206661696c656400000000000000000000000000600082015250565b6000611b53601383611b0c565b9150611b5e82611b1d565b602082019050919050565b60006020820190508181036000830152611b8281611b46565b9050919050565b6000606082019050611b9e600083018661162d565b611bab602083018561162d565b611bb8604083018461163c565b949350505050565b600081519050919050565b60005b83811015611be9578082015181840152602081019050611bce565b60008484015250505050565b6000611c0082611bc0565b611c0a8185611ac6565b9350611c1a818560208601611bcb565b80840191505092915050565b6000611c328284611bf5565b915081905092915050565b60008115159050919050565b611c5281611c3d565b8114611c5d57600080fd5b50565b600081519050611c6f81611c49565b92915050565b600060208284031215611c8b57611c8a61168f565b5b6000611c9984828501611c60565b91505092915050565b7f5472616e7366657246726f6d206661696c656400000000000000000000000000600082015250565b6000611cd8601383611b0c565b9150611ce382611ca2565b602082019050919050565b60006020820190508181036000830152611d0781611ccb565b9050919050565b7f417070726f7665206661696c6564000000000000000000000000000000000000600082015250565b6000611d44600e83611b0c565b9150611d4f82611d0e565b602082019050919050565b60006020820190508181036000830152611d7381611d37565b9050919050565b7f5472616e73666572206661696c65640000000000000000000000000000000000600082015250565b6000611db0600f83611b0c565b9150611dbb82611d7a565b602082019050919050565b60006020820190508181036000830152611ddf81611da3565b905091905056fea2646970667358221220b19069cf334f385853060d17416fca03729eb04a2f20fac6b7ac31c47e96108964736f6c63430008180033",
  "linkReferences": {},
  "deployedLinkReferences": {}
}